S0140000726F6F6D2D6D6F6E69746F722E737265631E
S11300000C9434000C943E000C943E000C943E007E
S11300100C943E000C943E000C943E000C943E0064
S11300200C943E000C943E000C943E000C943E0054
S11300300C943E000C943E000C943E000C943E0044
S11300400C943E000C943E000C943E000C943E0034
S11300500C943E000C943E000C943E000C943E0024
S11300600C943E000C943E0011241FBECFEFD8E048
S1130070DEBFCDBF0E946E000C94AD000C94000056
S11300808AB1806E8AB9219A8BB18F718BB9299804
S11300900895882311F05D9A01C05D98662311F0DC
S11300A05E9A01C05E98442311F05F9A08955F98A8
S11300B0089588EE93E0299AEFECF7E03197F1F791
S11300C000C000002998EFECF7E03197F1F700C089
S11300D00000019781F70895299808950E9440002F
S11300E041E060E080E00E9449002FEF83ED90E35F
S11300F0215080409040E1F700C0000040E061E002
S113010080E00E9449002FEF83ED90E3215080406E
S11301109040E1F700C0000040E060E081E00E9410
S113012049000E9459002FEF83ED90E32150804055
S11301309040E1F700C000000E946C0040E060E0E5
S113014080E00E9449002FEF89E698E12150804029
S11101509040E1F700C00000C3CFF894FFCF49
S9030000FC
