S0140000726F6F6D2D6D6F6E69746F722E737265631E
S11300000C9434000C9449000C9449000C9449005D
S11300100C9449000C9449000C9449000C94490038
S11300200C9449000C9449000C9449000C94490028
S11300300C9449000C9449000C9449000C94490018
S11300400C9449000C9449000C9449000C94490008
S11300500C9449000C9449000C9449000C944900F8
S11300600C9449000C94490011241FBECFEFD8E032
S1130070DEBFCDBF11E0A0E0B1E0E4ECF3E002C0EC
S113008005900D92A431B107D9F70E9492000C9407
S1130090E0010C94000080E480937C0087E8809366
S11300A07A000895ECE7F0E09081907F8F70892BBF
S11300B08083EAE7F0E0808180648083808186FD2C
S11300C0FDCF809178009091790008958AB1806E77
S11300D08AB9219A8BB18F718BB929980895882395
S11300E011F05D9A01C05D98662311F05E9A01C01B
S11300F05E98442311F05F9A08955F98089588EEFE
S113010093E0299AEFECF7E03197F1F700C0000093
S11301102998EFECF7E03197F1F700C00000019760
S113012081F708950E9466000E944B0087E690E0E4
S11301300E94D10080E00E9452008C0181E00E9464
S11301405200EC0180E091E00E94E400C8010E94AA
S1130150F30086E091E00E94E400CE010E94F300E7
S113016081E191E00E94E4000115124030F441E085
S113017060E080E00E946F0005C040E060E081E044
S11301800E946F00CD3BD24010F00E947F009FEF91
S113019029E688E1915020408040E1F700C000004A
S11301A0C9CF9093C5008093C40088E18093C100B7
S11301B086E08093C2000895E0ECF0E0908195FF22
S11301C0FDCF8093C6000895CF93DF93EC0188811F
S11301D0882331F021960E94DC0089918111FBCFA4
S11301E0DF91CF910895CF93DF9300D000D000D05A
S11301F0CDB7DEB7FC011E829C01ADECBCEC0E94C5
S1130200D101AC0156954795569547955695479516
S11302109A01220F331FCA01880F991F880F991F53
S1130220880F991F820F931F9F01281B390BC90147
S1130230805D8D839A010E94D1019695879596954C
S11302408795969587959C01220F331F880F991FD8
S1130250880F991F880F991F820F931F481B590BF2
S1130260405D4C839F013695279536952795ABE7DE
S1130270B4E10E94D101AC01569547959A01ADECC9
S1130280BCEC0E94D1019695879596958795969595
S113029087959C01220F331F880F991F880F991F80
S11302A0880F991F820F931F481B590B405D4B8386
S11302B09F01369527953695279536952795A5EC74
S11302C0B0E20E94D101AC01529542954F7045278E
S11302D05F7045279A01ADECBCEC0E94D101969564
S11302E0879596958795969587959C01220F331F40
S11302F0880F991F880F991F880F991F820F931FCA
S1130300481B590B405D4A839F01329522952F70FB
S113031023273F702327A7E4B3E00E94D101AC0157
S11303205695479556954795569547959A01ADEC40
S1130330BCEC0E94D10196958795969587959695E4
S113034087959C01220F331F880F991F880F991FCF
S1130350880F991F820F931F481B590B405D4983D7
S1130360403371F48A81882371F0FE013296DF01F3
S113037031968C91803349F480818111F8CF05C086
S1130380DE01119602C0DE011196CD010E94E40047
S113039026960FB6F894DEBF0FBECDBFDF91CF9186
S11303A00895A29FB001B39FC001A39F700D811D4A
S11303B01124911DB29F700D811D1124911D08956A
S10703C0F894FFCFDB
S11303C44C44523A2000207C204D513133353A209C
S10703D4000D0A000A
S9030000FC
