:100000000C9434000C9449000C9449000C94490061
:100010000C9449000C9449000C9449000C9449003C
:100020000C9449000C9449000C9449000C9449002C
:100030000C9449000C9449000C9449000C9449001C
:100040000C9449000C9449000C9449000C9449000C
:100050000C9449000C9449000C9449000C944900FC
:100060000C9449000C94490011241FBECFEFD8E036
:10007000DEBFCDBF11E0A0E0B1E0E0E3F5E002C0FB
:1000800005900D92AA30B107D9F70E9420020C9476
:1000900096020C94000080E480937C0087E88093B3
:1000A0007A000895ECE7F0E09081907F8F70892BC3
:1000B0008083EAE7F0E0808180648083808186FD30
:1000C000FDCF809178009091790008958AB1806E7B
:1000D0008AB9219A8BB18F718BB929980895882399
:1000E00011F05D9A01C05D98662311F05E9A01C01F
:1000F0005E98442311F05F9A08955F98089588EE02
:1001000093E0299AEFECF7E03197F1F700C0000097
:100110002998EFECF7E03197F1F700C00000019764
:1001200081F70895299808951092B90088E4809382
:10013000B80084E08093BC00089584EA8093BC00FA
:10014000ECEBF0E080818823ECF7089584E980935C
:10015000BC0008958093BB0084E88093BC00ECEB66
:10016000F0E080818823ECF78091B900887F0895C2
:10017000CF93DF93D82FD07FD62B90E1899F90012A
:100180001124C62FC22B0E949D008EE40E94AA005B
:100190008D2F8C600E94AA0085E08A95F1F70000FF
:1001A0008D2F8B7F88600E94AA0087EC90E00197DA
:1001B000F1F700C000008C2F8C600E94AA0095E02F
:1001C0009A95F1F700008C2F8B7F88600E94AA001F
:1001D00087EC90E00197F1F700C000000E94A600B4
:1001E000DF91CF91089560E00E94B800089581E00A
:1001F0000E94F3008FE39FE10197F1F700C0000038
:1002000008952FEF80E792E0215080409040E1F781
:1002100000C0000083E30E94F3008FE19EE4019799
:10022000F1F700C0000082E30E94F3008FE99FE035
:100230000197F1F700C0000088E20E94F3008CE013
:100240000E94F30086E00E94F3000E94F7000895E8
:10025000882311F080E401C080E0860F80680E944E
:10026000F3000895CF93DF93EC018881882339F060
:10027000219661E00E94B80089918111FACFDF9147
:10028000CF910895CF93DF9300D000D000D0CDB7A9
:10029000DEB7FC011E829C01ADECBCEC0E94870223
:1002A000AC015695479556954795569547959A01B1
:1002B000220F331FCA01880F991F880F991F880FBB
:1002C000991F820F931F9F01281B390BC901805D65
:1002D0008D839A010E9487029695879596958795BA
:1002E000969587959C01220F331F880F991F880FC1
:1002F000991F880F991F820F931F481B590B405D50
:100300004C839F013695279536952795ABE7B4E149
:100310000E948702AC01569547959A01ADECBCEC62
:100320000E948702969587959695879596958795CD
:100330009C01220F331F880F991F880F991F880F68
:10034000991F820F931F481B590B405D4B839F01E0
:10035000369527953695279536952795A5ECB0E2E5
:100360000E948702AC01529542954F7045275F70FD
:1003700045279A01ADECBCEC0E94870296958795C3
:1003800096958795969587959C01220F331F880F28
:10039000991F880F991F880F991F820F931F481B61
:1003A000590B405D4A839F01329522952F70232778
:1003B0003F702327A7E4B3E00E948702AC01569563
:1003C000479556954795569547959A01ADECBCECE7
:1003D0000E9487029695879596958795969587951D
:1003E0009C01220F331F880F991F880F991F880FB8
:1003F000991F820F931F481B590B405D498340335F
:1004000071F48A81882371F0FE013296DF01319602
:100410008C91803349F480818111F8CF05C0DE01D1
:10042000119602C0DE011196CD010E94320126967E
:100430000FB6F894DEBF0FBECDBFDF91CF91089508
:100440000E9466000E944B000E9494000E940101DD
:1004500080E00E9452008C0181E00E945200EC0179
:100460000E94F70060E080E00E94280180E091E0B7
:100470000E943201C8010E94420160E081E00E94B6
:10048000280185E091E00E943201CE010E944201E4
:10049000C73D21E0D20740F040E060E081E00E94EB
:1004A0006F000E947F0029C0C33CD14040F040E073
:1004B00061E080E00E946F000E9492001EC0013245
:1004C00093E0190740F040E061E080E00E946F0097
:1004D0000E94920012C00E35114040F440E061E0ED
:1004E00080E00E946F000E94920007C041E060E03F
:1004F00080E00E946F000E9492008FEF99E628E151
:10050000815090402040E1F700C00000A1CFA29FA1
:10051000B001B39FC001A39F700D811D1124911DD7
:10052000B29F700D811D1124911D0895F894FFCF85
:0A0530004C44523A004D513A0000CD
:00000001FF
