S0140000726F6F6D2D6D6F6E69746F722E737265631E
S11300000C9434000C9451000C9451000C94510045
S11300100C9451000C9451000C9451000C94510018
S11300200C9451000C9451000C9451000C94510008
S11300300C9451000C9451000C9451000C945100F8
S11300400C9451000C9451000C9451000C945100E8
S11300500C9451000C9451000C9451000C945100D8
S11300600C9451000C94510011241FBECFEFD8E022
S1130070DEBFCDBF11E0A0E0B1E0E0EAF5E102C0EF
S113008005900D92AE31B107D9F721E0AEE1B1E0B0
S113009001C01D92A633B207E1F70E9486060C94B4
S11300A0CE0A0C94000080E480937C0087E880935F
S11300B07A000895ECE7F0E09081907F8F70892BAF
S11300C08083EAE7F0E0808180648083808186FD1C
S11300D0FDCF80917800909179000895CF93C82F37
S11300E00E94E0048CEE0E94F5048C2F0E94F5041B
S11300F00E94E0048DEE0E94F5040E940B05C82FB7
S11301000E94F1048C2FCF910895CF93DF93D82FC1
S1130110C62F0E94E0048CEE0E94F5048D2F0E94ED
S1130120F5048C2F0E94F5040E94F104DF91CF9115
S11301300895CF9380ED0E946E00803609F0F2C0DE
S113014061E082EF0E94850067E284EF0E948500EF
S113015060EA85EF0E94850089E80E946E00C82F3E
S113016088E80E946E002C2F30E0322F2227282BA3
S113017030933501209334018BE80E946E00C82F20
S11301808AE80E946E002C2F30E0322F2227282B81
S113019030933301209332018DE80E946E00C82F02
S11301A08CE80E946E002C2F30E0322F2227282B5F
S11301B030933101209330018FE80E946E00C82FE4
S11301C08EE80E946E002C2F30E0322F2227282B3D
S11301D030932F0120932E0181E90E946E00C82FD5
S11301E080E90E946E002C2F30E0322F2227282B2A
S11301F030932D0120932C0183E90E946E00C82FB7
S113020082E90E946E002C2F30E0322F2227282B07
S113021030932B0120932A0185E90E946E00C82F98
S113022084E90E946E002C2F30E0322F2227282BE5
S1130230309329012093280187E90E946E00C82F7A
S113024086E90E946E002C2F30E0322F2227282BC3
S1130250309327012093260189E90E946E00C82F5C
S113026088E90E946E002C2F30E0322F2227282BA1
S113027030932501209324018BE90E946E00C82F3E
S11302808AE90E946E002C2F30E0322F2227282B7F
S113029030932301209322018DE90E946E00C82F20
S11302A08CE90E946E002C2F30E0322F2227282B5D
S11302B030932101209320018FE90E946E00C82F02
S11302C08EE90E946E002C2F30E0322F2227282B3B
S11302D030931F0120931E0181EA0E946E0082EE7A
S11302E00E946E0081EE0E946E0083EE0E946E00FA
S11302F084EE0E946E0085EE0E946E0086EE0E94DF
S11303006E0085EE0E946E0087EE0E946E002FEF55
S113031081EE94E0215080409040E1F700C000005D
S113032081E001C080E0CF9108952F923F924F92D7
S11303305F926F927F928F929F92AF92BF92CF9271
S1130340DF92EF92FF920F931F93CF93DF93CDB77A
S1130350DEB7A1970FB6F894DEBF0FBECDBF9C8762
S11303608B878AEF0E946E00C82E8BEF0E946E006E
S1130370D12CE12CF12C0B2EBCE0CC0CDD1CEE1CA2
S1130380FF1CBA95D1F7B02D90E0A0E0B0E0880F43
S1130390991FAA1FBB1F880F991FAA1FBB1F880F75
S11303A0991FAA1FBB1F880F991FAA1FBB1FC82A0A
S11303B0D92AEA2AFB2A8CEF0E946E0082958F705C
S11303C0C82A87EF0E946E008D8F88EF0E946E000E
S11303D08E8F89EF0E946E008F8F8DEF0E946E00CA
S11303E08EEF0E946E008091340190913501A0E05F
S11303F0B0E046015701689413F8B594A794979414
S113040087941694D1F7881A990AAA0ABB0AB701E5
S1130410A601689412F875956795579547951694B3
S1130420D1F7880F991FAA1FBB1F9A01AB01281B84
S1130430390B4A0B5B0BA0913201B09133010E943E
S113044041096B017C010B2EBBE0F594E794D79432
S1130450C794BA95D1F7B02DA5019401C501B40193
S11304600E9417099B01AC01012E1CE0559547958C
S1130470379527951A95D1F7102DA0913001B09199
S113048031010E944109DC01CB01072E7EE0B595C4
S1130490A795979587957A95D1F7702D1601270121
S11304A0280E391E4A1E5B1E29823A824B825C82C8
S11304B0D201C101880F991FAA1FBB1F880F991F62
S11304C0AA1FBB1F820D931DA41DB51D80589F4FED
S11304D0AF4FBF4F692F7A2F8B2F992787FD9A959E
S11304E00E94140820E030E048EC52E40E946B07BC
S11304F0698F7A8F8B8F9C8F72016101FF0CCC08FE
S1130500DC2C760129813A814B815C816C2D7C2D18
S11305108C2D9C2D345F4140510961097109810979
S1130520910929A338A34D835E836F8378878987D4
S11305309A87A22EB32EC42ED52EE62EF72E082F80
S1130540192F0E9449092D873E874F87588B6D8B41
S11305507E8B8F8B988F30912D0120912C01932FBE
S1130560990F990B492F592F692F792F892F0E94A1
S113057049090CE00E94790A222E332E442E552E6E
S1130580662E772E882E992E30912B0120912A01E8
S1130590932F990F990BAD84BE84CF84D888ED88AE
S11305A0FE880F89188D492F592F692F792F892F8C
S11305B00E94490908E00E94920AA22CB32CC42C80
S11305C0D52CE62CF72C082D192D0E94B00A705852
S11305D08F4F9F4FA0902E01B0902F011501B32C87
S11305E0C12CD12CE12CF12C00E010E00E9449092F
S11305F001E20E94920A298B3A8B4B8B5C8B762EFC
S1130600872E982E692EA0E00E94C20A09F460C1C8
S11306103091250120912401932F990F990BAD84DA
S1130620BE84CF84D888ED88FE880F89188D492F21
S1130630592F692F792F892F0E944909222E332E91
S1130640442E552E6D877E878F87988B3091270196
S113065020912601932F990F990BA9A0B8A0CD80C2
S1130660DE80EF80F88409851A85492F592F692F78
S1130670792F892F0E94490901E10E94790AA22C4D
S1130680B32CC42CD52CED84FE840F8518890E94CC
S1130690B00AA22EB32EC42ED52EE62EF72E8D83AD
S11306A0192F3E8C832D90E0A0E0B0E0880F991FB5
S11306B0AA1FBB1F880F991FAA1FBB1F880F991F52
S11306C0AA1FBB1F880F991FAA1FBB1F2F8D22951E
S11306D02F70822B4D8C442D50E060E070E0032E8F
S11306E03CE0440F551F661F771F3A95D1F7302D14
S11306F0842B952BA62BB72B40E050E060E170E0F3
S11307001A012B01281A390A4A0A5B0AD201C101CB
S1130710550C2208322C2101282F392F4A2F5B2F08
S1130720622D722D822D922D0FE10E94790A422EA4
S1130730532E4F835E83B62FA72FF82FE92F3091C6
S1130740290120912801932F990F990B492F592F93
S1130750692F792F892F03E20E94790A0D810E9463
S1130760B00AA22EB32EC42ED52EE62EF72E082FB5
S1130770192F242D352D4F815E816B2F7A2F8F2FCA
S11307809E2F0E94B90A0F2EF5E3AF2EF02D0F2EE7
S1130790FCE0BF2EF02DC12CD12CE12CF12C00E07B
S11307A010E00E944909A988BA88CB88DC88E72C24
S11307B0F82C092D162D0E94A4092D87232E4D8374
S11307C05E836F83788789879A870DE00E94920AF7
S11307D0322E432E542E652E762E872E982E9E87EB
S11307E030911F0120911E01932F990F990BA32C77
S11307F0B42CC52CD62CE72CF82C092D1E85492F9A
S1130800592F692F792F892F0E9449090E9449097C
S113081009E10E94920AAD84B22CCD80DE80EF8083
S1130820F88409851A850E94B00A322E432E542E6C
S1130830652E762E872E982E9E8730912101209149
S11308402001932F990F990B492F592F692F792F35
S1130850892F0E94490903E10E94920AA22EB32E15
S1130860C42ED52EE62EF72E082F192F232D342D26
S1130870452D562D672D782D892D9E850E94B00A11
S113088008E00E94920AA22EB32EC42ED52EE62E84
S1130890F72EE82F192F3091230120912201932F55
S11308A0990F990B492F592F692F792F892F04E01C
S11308B00E94790A0E2F0E94B00A0E940C0820E0C0
S11308C030E048EC56E40E946B076B017C0103C0E6
S11308D0C12CD12C7601298C3A8C4B8C5C8CAB8549
S11308E0BC852D923D924D925C92139769817A81D9
S11308F08B819C817C52814091090E94140820E0E4
S113090030E04AE754E40E946B07EB85FC8564837E
S1130910758386839783C086D186E286F386CF016A
S1130920A1960FB6F894DEBF0FBECDBFDF91CF9175
S11309301F910F91FF90EF90DF90CF90BF90AF90F9
S11309409F908F907F906F905F904F903F902F90EB
S113095008958AB1806E8AB9219A8BB18F718BB94F
S113096029980895882311F05D9A01C05D98662343
S113097011F05E9A01C05E98442311F05F9A0895C5
S11309805F98089588EE93E0299AEFECF7E03197A9
S1130990F1F700C000002998EFECF7E03197F1F788
S11309A000C00000019781F70895299808951092D6
S11309B0B90088E48093B80084E08093BC00089573
S11309C084EA8093BC0080EA96E8A1E0B0E0ECEB16
S11309D0F0E02081222324F00197A109B109C9F78D
S11309E0089584E98093BC0008958093BB0084E853
S11309F08093BC0080EA96E8A1E0B0E0ECEBF0E084
S1130A002081222324F00197A109B109C9F780911B
S1130A10B900887F089584E88093BC0080EA96E852
S1130A20A1E0B0E0ECEBF0E02081222324F0019778
S1130A30A109B109C9F78091BB000895CF93DF9351
S1130A40D82FD07FD62B90E1899F90011124C62FF7
S1130A50C22B0E94E0048EE40E94F5048D2F8C606A
S1130A600E94F50485E08A95F1F700008D2F8B7FB5
S1130A7088600E94F50487EC90E00197F1F700C0CC
S1130A8000008C2F8C600E94F50495E09A95F1F794
S1130A9000008C2F8B7F88600E94F50487EC90E027
S1130AA00197F1F700C000000E94F104DF91CF919B
S1130AB0089560E00E941E05089581E00E94590592
S1130AC08FE39FE10197F1F700C0000008952FEF35
S1130AD080E792E0215080409040E1F700C00000A0
S1130AE083E30E9459058FE19EE40197F1F700C06A
S1130AF0000082E30E9459058FE99FE00197F1F716
S1130B0000C0000088E20E9459058CE00E9459054B
S1130B1086E00E9459050E945D050895882311F01E
S1130B2080E401C080E0860F80680E945905089522
S1130B30CF93DF93EC018881882339F0219661E01B
S1130B400E941E0589918111FACFDF91CF910895FA
S1130B50CF93DF9300D000D000D0CDB7DEB7FC0137
S1130B601E829C01ADECBCEC0E942709AC01569599
S1130B70479556954795569547959A01220F331FE9
S1130B80CA01880F991F880F991F880F991F820F18
S1130B90931F9F01281B390BC901805D8D839A0126
S1130BA00E9427099695879596958795969587959A
S1130BB09C01220F331F880F991F880F991F880FDC
S1130BC0991F820F931F481B590B405D4C839F0153
S1130BD03695279536952795ABE7B4E10E9427090A
S1130BE0AC01569547959A01ADECBCEC0E942709DF
S1130BF09695879596958795969587959C01220F4E
S1130C00331F880F991F880F991F880F991F820F10
S1130C10931F481B590B405D4B839F0136952795C5
S1130C203695279536952795A5ECB0E20E942709BD
S1130C30AC01529542954F7045275F7045279A0144
S1130C40ADECBCEC0E9427099695879596958795FF
S1130C50969587959C01220F331F880F991F880F43
S1130C60991F880F991F820F931F481B590B405DD2
S1130C704A839F01329522952F7023273F702327A3
S1130C80A7E4B3E00E942709AC0156954795569511
S1130C904795569547959A01ADECBCEC0E942709FF
S1130CA09695879596958795969587959C01220F9D
S1130CB0331F880F991F880F991F880F991F820F60
S1130CC0931F481B590B405D4983403371F48A815B
S1130CD0882371F0FE013296DF0131968C918033C6
S1130CE049F480818111F8CF05C0DE01119602C05C
S1130CF0DE011196CD010E94980526960FB6F89450
S1130D00DEBF0FBECDBFDF91CF910895CF93DF93A8
S1130D10CDB7DEB72C970FB6F894DEBF0FBECDBFAC
S1130D200E94A9040E9453000E94D7040E946705F0
S1130D300E949900CE0101960E949501C980DA8033
S1130D40EB80FC804D805E806F80788480E00E9420
S1130D505A005C0181E00E945A008C010E945D05EA
S1130D6060E080E00E948E0580E091E00E9498059A
S1130D70C701B6010E94DD07CB010E94A80583E0EC
S1130D8091E00E949805C301B2010E94DD07CB01E6
S1130D900E94A80588E091E00E94980560E081E047
S1130DA00E948E058AE091E00E94980569857A8503
S1130DB08B859C850E94DD07CB010E94A8058DE0F0
S1130DC091E00E9498052FEF87EA91E62150804038
S1130DD09040E1F700C000000E945D0560E080E003
S1130DE00E948E0581E191E00E949805C5010E9450
S1130DF0A80560E081E00E948E0586E191E00E94F2
S1130E009805C8010E94A8052FEF87EA91E62150B2
S1130E1080409040E1F700C000000D3122E012074D
S1130E2050F420E030E040ED51E4C701B6010E94E7
S1130E301209181644F440E060E081E00E94B20414
S1130E400E94C20439C0033C114038F520E030E070
S1130E5040E951E4C701B6010E9466078823ECF01B
S1130E6020E030E040E752E4C301B2010E941209DD
S1130E7018169CF020E030E040EF51E4C301B201C9
S1130E800E94660788234CF09EE5A91A91E0B90AEE
S1130E9023ECA21621E0B20640F040E061E080E0DD
S1130EA00E94B2040E94D50407C041E060E080E0E3
S1130EB00E94B2040E94D5048FEF99E628E1815084
S1130EC090402040E1F700C0000034CF0E948D081C
S1130ED008F481E008950E947F070C94D8080E94CA
S1130EE0D10858F00E94CA0840F029F45F3F29F065
S1130EF00C94B10851110C940C090C94B7080E947D
S1130F00E90868F39923B1F3552391F3951B550B25
S1130F10BB27AA2762177307840738F09F5F5F4FC8
S1130F20220F331F441FAA1FA9F335D00E2E3AF007
S1130F30E0E832D091505040E695001CCAF72BD01F
S1130F40FE2F29D0660F771F881FBB1F2617370770
S1130F504807AB07B0E809F0BB0B802DBF01FF27A2
S1130F6093585F4F3AF09E3F510578F00C94B108C6
S1130F700C940C095F3FE4F3983ED4F3869577957F
S1130F806795B795F7959F5FC9F7880F911D96955B
S1130F90879597F90895E1E0660F771F881FBB1FB7
S1130FA0621773078407BA0720F0621B730B840B64
S1130FB0BA0BEE1F88F7E09508950E94F10888F0B7
S1130FC09F5798F0B92F9927B751B0F0E1F0660F09
S1130FD0771F881F991F1AF0BA95C9F714C0B1304A
S1130FE091F00E940B09B1E008950C940B09672F4E
S1130FF0782F8827B85F39F0B93FCCF38695779579
S11310006795B395D9F73EF4909580957095619561
S11310107F4F8F4F9F4F089597FB16F40E94BA0895
S11310200C945008E89409C097FB3EF49095809581
S1131030709561957F4F8F4F9F4F9923A9F0F92F9A
S113104096E9BB279395F695879577956795B79518
S1131050F111F8CFFAF4BB0F11F460FF1BC06F5FFE
S11310607F4F8F4F9F4F16C0882311F096E911C010
S1131070772321F09EE8872F762F05C0662371F031
S113108096E8862F70E060E02AF09A95660F771F45
S1131090881FDAF7880F9695879597F90895E8944D
S11310A0F92F96EBFF2381F0121613061406440B56
S11310B09395F69587957795679557954040FF23C7
S11310C0B9F71BC099270895882351F49850D2F793
S11310D0872B762F652F542F432F322F20E0B1F327
S11310E0121613061406440B88233AF09A95440FFB
S11310F0551F661F771F881FCAF755234AF4440FEC
S1131100551F11F460FF04C06F5F7F4F8F4F9F4FD7
S1131110880F9695879597F90895990F0008550FAC
S1131120AA0BE0E8FEEF16161706E807F907C0F069
S113113012161306E407F50798F0621B730B840B71
S1131140950B39F40A2661F0232B242B252B21F44B
S113115008950A2609F4A140A6958FEF811D811DEB
S1131160089597F99F6780E870E060E008959FEF25
S113117080EC089590958095709560955095409574
S1131180309521953F4F4F4F5F4F6F4F7F4F8F4F9C
S11311909F4F089500240A94161617061806090688
S11311A0089500240A9412161306140605060895D9
S11311B0092E0394000C11F4882352F0BB0F40F461
S11311C0BF2B11F460FF04C06F5F7F4F8F4F9F4FA1
S11311D0089557FD9058440F551F59F05F3F71F023
S11311E04795880F97FB991F61F09F3F79F087958A
S11311F00895121613061406551FF2CF4695F1DF13
S113120008C0161617061806991FF1CF86957105A2
S1131210610508940895E894BB2766277727CB01D6
S113122097F908950E948D0808F48FEF0895DB0163
S11312308F939F930E943609BF91AF91A29F800D17
S1131240911DA39F900DB29F900D11240895A29F0C
S1131250B001B39FC001A39F700D811D1124911D86
S1131260B29F700D811D1124911D08950E942709BC
S1131270A59F900DB49F900DA49F800D911D1124E6
S11312800895B7FF0C9436090E943609821B930B0C
S11312900895DF93CF931F930F939A9DF02D219F71
S11312A0F00D8B9DF00D8A9DE02DF10D039FF00D47
S11312B0029FE00DF11D4E9DE00DF11D5E9DF00DB0
S11312C04F9DF00D7F936F93BF92AF925F934F93B7
S11312D0D5010E9427098B01AC01D7010E9427097F
S11312E0EB01E80FF91FD6010E9499092F913F9154
S11312F0D6010E942709C60FD71FE81FF91FAF9117
S1131300BF910E9499092F913F910E942709C60F0E
S1131310D71FE81FF91FD6010E942709E60FF71F00
S11313209801BE01CF0111240F911F91CF91DF913C
S113133008950E942709460F571FC81FD91F08F494
S113134031960895689401C0E894F92FF12B12F0B6
S11313500C94D609A0E0B0E0E0EBF9E00C94480A64
S1131360092E059422F40E94320A112392F4F0E823
S11313700F26FFEFE094F09400951095B094C0947C
S1131380D094A194BF0ACF0ADF0AEF0AFF0A0F0B19
S11313901F0B0E94E10907FC0E94320ACDB7DEB799
S11313A0ECE00C94640A689401C0E8948F929F92D4
S11313B0CF93DF930E94E109DF91CF919F908F90AB
S11313C0089588249924F401E401B0E49F93AA27A2
S11313D09A158B049C04ED05FE05CF05D007A107E3
S11313E098F4AD2FDC2FCF2FFE2FE92D982C892ECA
S11313F0982F872F762F652F542F432F322F222794
S1131400B85031F7BF9127C01B2EBF91BB27220FC5
S1131410331F441F551F661F771F881F991F881C81
S1131420991CEE1FFF1FCC1FDD1FAA1FBB1F8A14B0
S11314309B04EC05FD05CE05DF05A007B10748F0C8
S11314408A189B08EC09FD09CE09DF09A00BB10B32
S113145021601A94E1F62EF49401AF01BE01CD018E
S1131460000C089560957095809590953095409501
S1131470509521953F4F4F4F5F4F6F4F7F4F8F4F89
S11314809F4F08952F923F924F925F926F927F9257
S11314908F929F92AF92BF92CF92DF92EF92FF9280
S11314A00F931F93CF93DF93CDB7DEB7CA1BDB0B2C
S11314B00FB6F894DEBF0FBECDBF09942A883988D1
S11314C048885F846E847D848C849B84AA84B984D8
S11314D0C884DF80EE80FD800C811B81AA81B981E4
S11314E0CE0FD11D0FB6F894DEBF0FBECDBFED01F8
S11314F008950F93083090F0982F872F762F652F3B
S1131500542F432F322F22270850F4CF220F331F9A
S1131510441F551F661F771F881F991F0A95B2F72E
S11315200F91089597FB10F8169400080F93083054
S113153098F00850232F342F452F562F672F782FDC
S1131540892F902DF4CF0594979587957795679576
S113155057954795379527950A95AAF70F910895BA
S11315602A0D3B1D4C1D5D1D6E1D7F1D801F911F8F
S113157008952A193B094C095D096E097F09800BFE
S1131580910B08950024A7FD00942A173005400507
S1131590500560057005800590050895F894FFCF07
S11315A0543A004320483A002500503A00685061FC
S11115B0004C44523A004D513133353A00009C
S9030000FC
